{
  "contractName": "LuckyNumber",
  "abi": [
    {
      "inputs": [
        {
          "internalType": "uint256",
          "name": "_num",
          "type": "uint256"
        }
      ],
      "stateMutability": "nonpayable",
      "type": "constructor"
    },
    {
      "inputs": [],
      "name": "myNumber",
      "outputs": [
        {
          "internalType": "uint256",
          "name": "",
          "type": "uint256"
        }
      ],
      "stateMutability": "view",
      "type": "function",
      "constant": true
    },
    {
      "inputs": [],
      "name": "getMyNumber",
      "outputs": [
        {
          "internalType": "uint256",
          "name": "",
          "type": "uint256"
        }
      ],
      "stateMutability": "view",
      "type": "function",
      "constant": true
    },
    {
      "inputs": [
        {
          "internalType": "uint256",
          "name": "x",
          "type": "uint256"
        }
      ],
      "name": "setMyNumber",
      "outputs": [],
      "stateMutability": "nonpayable",
      "type": "function"
    }
  ],
  "bytecode": "0x608060405233600160006101000a81548173ffffffffffffffffffffffffffffffffffffffff021916908373ffffffffffffffffffffffffffffffffffffffff16021790555034801561005157600080fd5b50604051610442380380610442833981810160405281019061007391906100bb565b80600081905550506100e8565b600080fd5b6000819050919050565b61009881610085565b81146100a357600080fd5b50565b6000815190506100b58161008f565b92915050565b6000602082840312156100d1576100d0610080565b5b60006100df848285016100a6565b91505092915050565b61034b806100f76000396000f3fe608060405234801561001057600080fd5b50600436106100415760003560e01c806323fd0e40146100465780636ffd773c14610064578063b32e737f14610080575b600080fd5b61004e61009e565b60405161005b91906101b3565b60405180910390f35b61007e600480360381019061007991906101ff565b6100a4565b005b610088610191565b60405161009591906101b3565b60405180910390f35b60005481565b600160009054906101000a900473ffffffffffffffffffffffffffffffffffffffff1673ffffffffffffffffffffffffffffffffffffffff163373ffffffffffffffffffffffffffffffffffffffff1614610134576040517f08c379a000000000000000000000000000000000000000000000000000000000815260040161012b90610289565b60405180910390fd5b6201869f811180156101485750620f424081105b610187576040517f08c379a000000000000000000000000000000000000000000000000000000000815260040161017e906102f5565b60405180910390fd5b8060008190555050565b60008054905090565b6000819050919050565b6101ad8161019a565b82525050565b60006020820190506101c860008301846101a4565b92915050565b600080fd5b6101dc8161019a565b81146101e757600080fd5b50565b6000813590506101f9816101d3565b92915050565b600060208284031215610215576102146101ce565b5b6000610223848285016101ea565b91505092915050565b600082825260208201905092915050565b7f4e6f7420746865206f776e657221000000000000000000000000000000000000600082015250565b6000610273600e8361022c565b915061027e8261023d565b602082019050919050565b600060208201905081810360008301526102a281610266565b9050919050565b7f4e6f7420696e2072616e67652100000000000000000000000000000000000000600082015250565b60006102df600d8361022c565b91506102ea826102a9565b602082019050919050565b6000602082019050818103600083015261030e816102d2565b905091905056fea2646970667358221220239fcf55bd1098a7c9bf9d6944588c11968f75a7819fb562172a98aa6896b8a964736f6c634300080b0033",
  "immutableReferences": {},
  "source": "// SPDX-License-Identifier: MIT\npragma solidity >=0.4.22 <0.9.0;\n\n/// @title A code generator for marathon training plans\n/// @author Jane You\n/// @notice You can use this contract for only the most basic plans\n/// @dev All function calls are currently implemented without side effects\n/// @custom:experimental This is an experimental contract.\n\ncontract LuckyNumber {\n    uint256 public myNumber;\n    address owner = msg.sender;\n\n    constructor(uint256 _num) public {\n        myNumber = _num;\n    }\n\n    /// @notice Generate marathon training plans\n    /// @dev The generator algorithm is randomized and need to be improved\n    /// @return Code in six digits\n    function getMyNumber() public view returns (uint256) {\n        // get the code of current marathon running plan\n\n        return myNumber;\n    }\n\n    /// @notice Reset a new plan\n    /// @dev Code in six digits\n    /// @param x The code to reset a marathon training schedule\n    function setMyNumber(uint256 x) public {\n        // set the code of new marathon running plan\n\n        require(msg.sender == owner, 'Not the owner!');\n        require(x > 99999 && x < 1000000, 'Not in range!');\n        myNumber = x;\n    }\n}\n",
  "sourcePath": "/Users/janeyou/Documents/Learn_web3/consensys_bootcamp/blockchain-developer-bootcamp-final-project/contracts/LuckyNumber.sol",
  "compiler": {
    "name": "solc",
    "version": "0.8.11+commit.d7f03943.Emscripten.clang"
  },
  "schemaVersion": "3.4.4",
  "updatedAt": "2022-01-16T09:31:01.316Z",
  "networkType": "ethereum",
  "devdoc": {
    "author": "Jane You",
    "custom:experimental": "This is an experimental contract.",
    "details": "All function calls are currently implemented without side effects",
    "kind": "dev",
    "methods": {
      "getMyNumber()": {
        "details": "The generator algorithm is randomized and need to be improved",
        "returns": {
          "_0": "Code in six digits"
        }
      },
      "setMyNumber(uint256)": {
        "details": "Code in six digits",
        "params": {
          "x": "The code to reset a marathon training schedule"
        }
      }
    },
    "title": "A code generator for marathon training plans",
    "version": 1
  },
  "userdoc": {
    "kind": "user",
    "methods": {
      "getMyNumber()": {
        "notice": "Generate marathon training plans"
      },
      "setMyNumber(uint256)": {
        "notice": "Reset a new plan"
      }
    },
    "notice": "You can use this contract for only the most basic plans",
    "version": 1
  }
}