{
  "contractName": "LuckyNumber",
  "abi": [
    {
      "inputs": [
        {
          "internalType": "uint256",
          "name": "_num",
          "type": "uint256"
        }
      ],
      "stateMutability": "nonpayable",
      "type": "constructor"
    },
    {
      "inputs": [],
      "name": "myNumber",
      "outputs": [
        {
          "internalType": "uint256",
          "name": "",
          "type": "uint256"
        }
      ],
      "stateMutability": "view",
      "type": "function",
      "constant": true
    },
    {
      "inputs": [],
      "name": "getMyNumber",
      "outputs": [
        {
          "internalType": "uint256",
          "name": "",
          "type": "uint256"
        }
      ],
      "stateMutability": "view",
      "type": "function",
      "constant": true
    },
    {
      "inputs": [
        {
          "internalType": "uint256",
          "name": "x",
          "type": "uint256"
        }
      ],
      "name": "setMyNumber",
      "outputs": [],
      "stateMutability": "nonpayable",
      "type": "function"
    }
  ],
  "bytecode": "0x608060405233600160006101000a81548173ffffffffffffffffffffffffffffffffffffffff021916908373ffffffffffffffffffffffffffffffffffffffff16021790555034801561005157600080fd5b50604051610440380380610440833981810160405281019061007391906100bb565b80600081905550506100e8565b600080fd5b6000819050919050565b61009881610085565b81146100a357600080fd5b50565b6000815190506100b58161008f565b92915050565b6000602082840312156100d1576100d0610080565b5b60006100df848285016100a6565b91505092915050565b610349806100f76000396000f3fe608060405234801561001057600080fd5b50600436106100415760003560e01c806323fd0e40146100465780636ffd773c14610064578063b32e737f14610080575b600080fd5b61004e61009e565b60405161005b91906101b1565b60405180910390f35b61007e600480360381019061007991906101fd565b6100a4565b005b61008861018f565b60405161009591906101b1565b60405180910390f35b60005481565b600160009054906101000a900473ffffffffffffffffffffffffffffffffffffffff1673ffffffffffffffffffffffffffffffffffffffff163373ffffffffffffffffffffffffffffffffffffffff1614610134576040517f08c379a000000000000000000000000000000000000000000000000000000000815260040161012b90610287565b60405180910390fd5b6103e781118015610146575061271081105b610185576040517f08c379a000000000000000000000000000000000000000000000000000000000815260040161017c906102f3565b60405180910390fd5b8060008190555050565b60008054905090565b6000819050919050565b6101ab81610198565b82525050565b60006020820190506101c660008301846101a2565b92915050565b600080fd5b6101da81610198565b81146101e557600080fd5b50565b6000813590506101f7816101d1565b92915050565b600060208284031215610213576102126101cc565b5b6000610221848285016101e8565b91505092915050565b600082825260208201905092915050565b7f4e6f7420746865206f776e657221000000000000000000000000000000000000600082015250565b6000610271600e8361022a565b915061027c8261023b565b602082019050919050565b600060208201905081810360008301526102a081610264565b9050919050565b7f4e6f7420696e2072616e67652100000000000000000000000000000000000000600082015250565b60006102dd600d8361022a565b91506102e8826102a7565b602082019050919050565b6000602082019050818103600083015261030c816102d0565b905091905056fea2646970667358221220955bd447aa498695dcf9285e5b1f07f769b46932664b599622c922a6a9c6cca464736f6c634300080b0033",
  "immutableReferences": {},
  "source": "// SPDX-License-Identifier: MIT\npragma solidity >=0.4.22 <0.9.0;\n\ncontract LuckyNumber {\n    uint256 public myNumber;\n    address owner = msg.sender;\n\n    constructor(uint256 _num) public {\n        myNumber = _num;\n    }\n\n    function getMyNumber() public view returns (uint256) {\n        return myNumber;\n    }\n\n    function setMyNumber(uint256 x) public {\n        require(msg.sender == owner, 'Not the owner!');\n        require(x > 999 && x < 10000, 'Not in range!');\n        myNumber = x;\n    }\n}\n",
  "sourcePath": "/Users/janeyou/Documents/Learn_web3/consensys_bootcamp/blockchain-developer-bootcamp-final-project/contracts/LuckyNumber.sol",
  "compiler": {
    "name": "solc",
    "version": "0.8.11+commit.d7f03943.Emscripten.clang"
  },
  "schemaVersion": "3.4.4",
  "updatedAt": "2022-01-16T04:30:05.935Z",
  "networkType": "ethereum",
  "devdoc": {
    "kind": "dev",
    "methods": {},
    "version": 1
  },
  "userdoc": {
    "kind": "user",
    "methods": {},
    "version": 1
  }
}